:020000040800F2
:1000000000000120F9020008153E0008193E000812
:100010001D3E0008213E0008253E000800000000AB
:10002000000000000000000000000000293E000861
:100030002D3E000800000000313E00089134000809
:100040006D0300086D0300086D0300086D030008D0
:100050006D0300086D0300086D0300086D030008C0
:100060006D0300086D0300086D0300086D030008B0
:100070006D0300086D0300086D0300086D030008A0
:100080006D0300086D0300086D0300086D03000890
:100090006D0300086D0300086D0300086D03000880
:1000A0006D0300086D0300086D0300086D03000870
:1000B0006D0300086D0300086D0300086D03000860
:1000C0006D0300086D0300086D0300086D03000850
:1000D0006D0300086D0300086D0300086D03000840
:1000E0006D0300086D030008353E000800000000A5
:1000F0000000000000000000000000000000000000
:1001000000000000000000006D0300086D030008FF
:100110006D0300086D0300086D0300086D030008FF
:100120006D0300086D0300086D0300086D030008EF
:100130006D0300086D0300086D0300086D030008DF
:100140006D0300086D0300086D030008653E00089C
:10015000000000000000000000000000000000009F
:10016000000000000000000000000000000000008F
:10017000000000000000000000000000000000007F
:10018000000000000000000000000000000000006F
:10019000000000000000000000000000000000005F
:1001A000000000000000000000000000000000004F
:1001B000000000000000000000000000000000003F
:1001C000000000000000000000000000000000002F
:1001D000000000000000000000000000000000001F
:1001E0005FF8E0F100B583B000F06EFD304B314AAE
:1001F0001360314A1360314B314A03E011681960D2
:10020000043304322F498B42F8D32A4B1A682E4B01
:100210009A4204D1284B1A682C4B9A4200D0FEE730
:10022000234B2B4A13602B4A13602B4B02E0002216
:100230001A600433294A9342F9D3254B1B6813B93A
:10024000244B1B6803B1FEE700F042FD01A869469C
:1002500000F02EFD224C234B1C1BA410002504E0B3
:100260001F4B53F8253098470135AC42F8DC1E4C43
:100270001E4B1C1BA410002504E01B4B53F825301B
:1002800098470135AC42F8DC0198009903F08EF9EB
:100290000546174C174B1C1BA41004E0013C144BE3
:1002A00053F824309847002CF8DC284600F0FAFC7C
:1002B000BABADECA00000020380100200000002089
:1002C000B84100083C010020785634123254769828
:1002D0003C010020BC1200203C010020C012002084
:1002E0007003000870030008700300087003000822
:1002F000700300087003000808B5FFF773FF00BF24
:1003000000BEFEE71EF0040F0CBFEFF30880EFF312
:1003100009807146124A104700BEFEE700BEFEE7A4
:100320001EF0040F0CBFEFF30880EFF30980714655
:100330000C4A104700BEFEE71EF0040F0CBFEFF39F
:100340000880EFF309807146074A104700BEFEE7B8
:1003500000BEFEE700BEFEE700BEFEE770470000FD
:1003600019030008350300084D03000800BEFEE72E
:1003700010B50446B0F5E06F0FD0B0F5C06F0CD0EB
:10038000B0F5A06F09D0B0F5806F06D0B0F5407F12
:1003900003D00548692100F093FC44F0BF6444F4A5
:1003A0000034024BDC6010BDA440000800ED00E00A
:1003B00010B50446C378012B03D920487B2100F0F7
:1003C0007FFC63780F2B03D91C487C2100F078FC5C
:1003D000A3780F2B03D919487D2100F071FCE37835
:1003E00003B3174BDA68D243C2F30222C2F104000E
:1003F0000F2323FA02F1637803FA00F2A3780B408B
:1004000013431B012278DBB20E490A4482F8003301
:100410002378580903F01F03012202FA03F341F87D
:10042000203010BD23785A0903F01F0301219940A1
:1004300002F12003034A42F8231010BDA440000833
:1004400000ED00E000E100E010B50446030D1B05DF
:1004500003B920B903484FF4817100F031FC024B1D
:100460005C6110BDCC40000800040140F8B50546B1
:100470000C46474B98421BD003F58063984217D037
:1004800003F58063984213D003F5806398420FD040
:1004900003F5806398420BD003F58063984207D040
:1004A00003F58063984203D03A48B82100F008FC75
:1004B000E3788BB1042B0FD0282B0DD0482B0BD019
:1004C000142B09D0102B07D01C2B05D0182B03D0D0
:1004D0003048B92100F0F4FB23881BB92D48BA211C
:1004E00000F0EEFBE37803F00F06304613F0100F38
:1004F0000AD0A378013BDBB2022B03D92548C121E6
:1005000000F0DEFBA07830432378E3B12E680022B0
:1005100016E0012393402188194099420FD197009A
:100520000F21B94026EA010600FA07F10E43E178EF
:10053000282901D16B6102E0482900D12B610132E9
:10054000072AE6D92E602388FF2B20D96F68002167
:100550001AE001F108020123934022881A409A42CE
:1005600011D14FEA810E0F2202FA0EF627EA060297
:1005700000FA0EF71743E278282A00D16B61E2787F
:10058000482A00D12B6101310729E2D96F60F8BDFB
:10059000000801400041000838B504460D462A4BCA
:1005A00098421CD003F58063984218D003F580630D
:1005B000984214D003F58063984210D003F580630D
:1005C00098420CD003F58063984208D003F580630D
:1005D000984204D01D484FF4927100F071FB6B1EDD
:1005E0009BB2012B28D9042D26D0082D24D0102D04
:1005F00022D0202D20D0402D1ED0802D1CD0B5F52E
:10060000807F19D0B5F5007F16D0B5F5806F13D077
:10061000B5F5006F10D0B5F5805F0DD0B5F5005F72
:100620000AD0B5F5804F07D0B5F5004F04D0074884
:1006300040F2251100F044FBA3682B4201D00120B9
:1006400038BD002038BD00BF00080140004100084F
:1006500038B504460D462A4B98421CD003F58063FA
:10066000984218D003F58063984214D003F5806354
:10067000984210D003F5806398420CD003F5806354
:10068000984208D003F58063984204D01D484FF487
:10069000A57100F015FB6B1E9BB2012B28D9042D10
:1006A00026D0082D24D0102D22D0202D20D0402D52
:1006B0001ED0802D1CD0B5F5807F19D0B5F5007FF8
:1006C00016D0B5F5806F13D0B5F5006F10D0B5F525
:1006D000805F0DD0B5F5005F0AD0B5F5804F07D02B
:1006E000B5F5004F04D0074840F24B1100F0E8FA8E
:1006F000E3682B4201D0012038BD002038BD00BF87
:10070000000801400041000838B504460D46144B6E
:1007100098421CD003F58063984218D003F580639B
:10072000984214D003F58063984210D003F580639B
:1007300098420CD003F58063984208D003F580639B
:10074000984204D0074840F26F1100F0B9FA25B979
:1007500004484FF4B87100F0B3FA256138BD00BF0A
:10076000000801400041000838B504460D46144B0E
:1007700098421CD003F58063984218D003F580633B
:10078000984214D003F58063984210D003F580633B
:1007900098420CD003F58063984208D003F580633B
:1007A000984204D0074840F27F1100F089FA25B939
:1007B00004484FF4C07100F083FA656138BD00BF92
:1007C000000801400041000838B504460D46431EAC
:1007D000012B40F29080042800F08D80082800F062
:1007E0008A80634B984200F086802033984200F064
:1007F0008280604B98427ED0803398427BD05E4BA3
:10080000984278D003F58073984274D003F58073D2
:10081000984270D0594B98426DD003F5806398424E
:1008200069D0B0F5805F66D0B0F5EA1F63D0B0F54F
:10083000EB1F60D0B0F5004F5DD0514B98425AD0BD
:100840000133984257D00233984254D0043398422F
:1008500051D0083398424ED0B0F1201F4BD03033E6
:10086000984248D0474B984245D003F58073984250
:1008700041D003F5007398423DD0434B98423AD0A3
:1008800003F57063984236D0B0F5011F33D03F4B6B
:10089000984230D0013398422DD0023398422AD06A
:1008A0000433984227D00833984224D0103398421A
:1008B00021D0203398421ED0403398421BD0803341
:1008C000984218D003F58073984214D003F5007352
:1008D000984210D003F5806398420CD003F5006372
:1008E000984208D003F58053984204D028484FF42A
:1008F0000C7100F0E5F9012D04D9254840F23121B1
:1009000000F0DEF9002C02DA224BDB6901E0214B1A
:100910005B68C4F30340A2B204F44011B1F5401F78
:1009200007D123F070631B48416821F0706141607A
:1009300011E014F4801F06D00321814023EA010353
:1009400043F0706307E0610D090102FA01F123EA47
:10095000010343F070631DB1610D09018A40134327
:10096000002C02DA0B4AD36138BD0A4A536038BD05
:1009700010001400400016000001180000081A00C2
:100980000100200000013000001120000100008063
:10099000004100080000014010B50446012804D9B8
:1009A000034840F26B1100F08BF9024B1C6010BD44
:1009B000344100080000424238B504460D4620F498
:1009C000E83323F0570303B920B90C4840F2314112
:1009D00000F076F9012D04D9084840F2324100F0C8
:1009E0006FF925B1064B5A6914435C6138BD044A5E
:1009F000536923EA0404546138BD00BF3441000840
:100A00000010024038B504460D460E4B034003B9B2
:100A100020B90D484FF48A6100F052F9012D04D934
:100A2000094840F2514100F04BF925B1074B9A6952
:100A300014439C6138BD054A936923EA0404946118
:100A400038BD00BF0200C0FF344100080010024062
:100A50002DE9F04105460C46464B98420BD0A3F5D4
:100A60007843984207D003F58063984203D0424808
:100A7000A92100F025F9238863B1B3F5806F09D06F
:100A8000B3F5004F06D0B3F5404F03D03A48AC2140
:100A900000F016F96388B3F5827F04D01BB13648A5
:100AA000AD2100F00DF9A388B3F5006F04D01BB1A0
:100AB0003148AE2100F004F9E3882BB1022B03D0BA
:100AC0002D48AF2100F0FCF82389012B03D92A48D7
:100AD000B02100F0F5F86389B3F5007F04D01BB1B5
:100AE0002548B12100F0ECF8A3898BB1082B0FD079
:100AF000102B0DD0182B0BD0202B09D0282B07D072
:100B0000302B05D0382B03D01B48B22100F0D8F889
:100B1000E3892BB1802B03D01748B32100F0D0F824
:100B2000238A1BB91448B42100F0CAF82B8803F4B7
:100B3000415720886688A188B4F806802289B4F8D5
:100B40000AC0A389B4F80EE03043084348EA000124
:100B500011434CEA01021A434EEA02033B432B8045
:100B6000AB8B23F400631B041B0CAB83238A2B8207
:100B7000BDE8F081003001406441000838B504460A
:100B80000D46124B98420CD0A3F57843984208D0FA
:100B900003F58063984204D00D484FF4DA7100F0F9
:100BA0008FF8012D04D90A4840F2B51100F088F8F9
:100BB0002DB123889BB243F04003238038BD2388A6
:100BC00023F040031B041B0C238038BD0030014080
:100BD0006441000838B504460D46094B98420CD0D4
:100BE000A3F57843984208D003F58063984204D077
:100BF00004484FF40B7100F063F8A58138BD00BFC5
:100C0000003001406441000810B50446094B984289
:100C10000CD0A3F57843984208D003F5806398423E
:100C200004D005484FF40F7100F04AF8A08980B253
:100C300010BD00BF003001406441000838B50546D2
:100C40000C46164B98420CD0A3F57843984208D036
:100C500003F58063984204D011484FF4427100F0CC
:100C60002FF8802C12D0402C10D0202C0ED0102C1D
:100C70000CD0082C0AD0042C08D0022C06D0012C51
:100C800004D0074840F2093100F01AF82B891C42C1
:100C900001D0012038BD002038BD00BF0030014028
:100CA00064410008FEE700BF08B50120FFF7FAFF26
:100CB00001230360014B0B60704700BF040000205C
:100CC00008B5FFF7F1FF00BF08B500F077F808BDE1
:100CD00008B500F0A5F808BD82B000230193009389
:100CE000314A136843F4803313602F4B1B6803F4BD
:100CF00000330093019B01330193009B1BB9019BBF
:100D0000B3F5A06FF1D1284B1B6813F4003F02D05C
:100D10000123009301E000230093009B012B40D1AD
:100D2000224B1A6842F010021A601A6822F003027D
:100D30001A601A6842F002021A60A3F580535A68DA
:100D40005A605A6842F400525A605A6842F480620B
:100D50005A60D96A164A0A40DA62DA6A42F4C8620C
:100D6000DA625A6822F47C125A605A6842F4E81235
:100D70005A601A6842F080721A600B4B1B6813F0BD
:100D8000007FFAD0084B5A6822F003025A605A6872
:100D900042F002025A60044B5B6803F00C03082B1C
:100DA000F9D102B0704700BF00100240002002409D
:100DB00000F0FEFF08B5FFF78FFF08BD08B5154B23
:100DC0001A6842F001021A605968134A0A405A60D0
:100DD0001A6822F0847222F480321A601A6822F4AF
:100DE00080221A605A6822F4FE025A601A6822F0C1
:100DF000A0521A604FF47F029A600022DA624FF428
:100E00001F029A60FFF7D6FF4FF00062034B9A6013
:100E100008BD00BF001002400000FFF000ED00E040
:100E200010B42E4B5B6803F00C03042B07D0082B87
:100E300009D0002B40D12A4A2A4B1A603FE0284AA9
:100E4000284B1A603BE0254A5368526802F480320E
:100E5000C3F383430D2B01D0023300E006232AB9EC
:100E6000214A02FB03F31F4A136028E01B4AD16AA0
:100E7000D26A02F00F02013211F4803F07D1184903
:100E8000B1FBF2F203FB02F3164A136017E01349B9
:100E9000CC6AC4F303140134C96AC1F30321881C6A
:100EA0000F49B1FBF4F100FB01F1B1FBF2F203FBDE
:100EB00002F30C4A136002E0094A0A4B1A60074B1E
:100EC0005B68C3F30313094AD25CD2B205490B68CD
:100ED000D3400B605DF8044B704700BF0010024028
:100EE00000127A001C00002000093D000C000020C8
:100EF000C3684FF0FF325A60C3686FF080425A6196
:100F0000014BC268936170470008008030B583B020
:100F1000054600240194032002F0CCFFEB681A6917
:100F2000019201340E4A944217D8019A002AF2DA4B
:100F3000019A42F001020192019A1A610023EA68C3
:100F4000126901920133064A934203D8019A12F0C2
:100F5000010FF4D1032002F0ADFF002003B030BD3B
:100F6000400D030010B4C4786CB903339B1000EB40
:100F70008200D0F8D040002203E051F8040B20603A
:100F800001329A42F9D300205DF8044B704700BF4C
:100F900010B403329210D0F8D040002303E0206850
:100FA00041F8040B01339342F9D308465DF8044B32
:100FB000704700BF30B40023C37001238370402307
:100FC000838001290DD10123C372082303700423F8
:100FD00043704FF4A073C380022303724FF0A0410B
:100FE0000CE051B90023C3720C2303700623437035
:100FF0004FF4A063C380204900E00021C16001F5E7
:101000000063036100230AE001EB431202F510655F
:1010100000EB8304A56102F530626265013342781A
:101020009A42F1D801F58063436101F58863C0F805
:10103000CC30002308E001EB431202F5A06200EB84
:101040008304C4F89020013304789C42F3D8002331
:1010500008E001EB033202F5805200EB8305C5F88E
:10106000D0200133A342F4D301F56061C0F80C1124
:10107000002030BC704700BF0000044038B5044673
:101080000025037A012B21D1C268936B6FF31043C3
:10109000417A09B143F480139363E268D3686FF334
:1010A00086136FF396536FF351436FF3D343D360BB
:1010B0002046FFF72BFFE378012B19D1052363F3BB
:1010C000440545F02005E3689D6011E0C268D168E1
:1010D00041F04003D360FFF719FF4FF43413627AF5
:1010E0000AB14FF47413E2689363142002F0F4FE23
:1010F000E378012B07D1E3689D68052262F344057C
:1011000045F020059D60002038BD00BFC26893688F
:1011100043F0010393600020704700BFC2689368EA
:1011200023F0010393600020704700BF00B583B037
:1011300000230193019A42F02002019201F01F0165
:10114000019A22F4F86242EA81110191C268019980
:101150001161C268126901920133074A934203D8B0
:10116000019A12F0200FF4D1032002F0A3FE002018
:1011700003B05DF804FB00BF400D030000B583B071
:1011800000230193019A42F010020192C268019972
:101190001161C268126901920133074A934203D870
:1011A000019A12F0100FF4D1032002F083FE002008
:1011B00003B05DF804FB00BF400D030008B5C26832
:1011C000D3686FF35D736FF39E73012902D143F00F
:1011D000005302E009B943F08043D360322002F0AB
:1011E0007BFE002008BD00BFC368586900F0010005
:1011F000704700BF08B5FFF7F7FF10F1FF3018BFC9
:10120000012008BDC3685A6998691040704700BF43
:101210000269136861F301031360704738B505462E
:101220000024C3689C61C3686FF080425A61FFF775
:101230005FFEEB7803B9102444F4701444F4605456
:1012400044F00804EA68936923EA04031C439461A8
:10125000002038BD70B504460025D0F80C311D6063
:101260000269136865F3CC231360C37A012B27D17D
:101270002E460321FFF7CCFFE26880235362202231
:1012800062F31F4563F30F05E1688D62A02161F3EE
:101290000F0663F31F46E368C3F804614FF49073CD
:1012A00063F30F0662F31F46E368C3F808614FF467
:1012B000A07363F30F066FF31F46E368C3F80C6176
:1012C00020461021FFF732FF2046FFF757FF236922
:1012D00000221A6123695A6123694FF0FF31996135
:1012E0002369DA611AE004EB82039B691B68C3F38C
:1012F000076323F07F0313F0FF0F02D04FF09041FC
:1013000000E00021131D04EB8303986801609968D5
:10131000002008619B68FF21996001326378934245
:10132000E1D800221BE004EB82035B6D1B68C3F372
:10133000076323F07F0313F0FF0F02D04FF09041BB
:1013400000E0002102F1140304EB830358680160FC
:101350005968002008615B68FF2199600132637859
:101360009342E0D82269136943F480731361E378F0
:10137000012B09D10323402262F38A0343F4803313
:1013800062F35943226913632046FFF747FF0020A9
:1013900070BD00BF03699B68C3F34103022B05D0F6
:1013A000032B05D0012B03D0032070470120704789
:1013B0000220704703699B6882691168C3F3410387
:1013C000022B02D06FF30A0102E0032363F30A0148
:1013D00011600269536843F48073536000207047C2
:1013E00030B400224B78012B08D10C7800EB840339
:1013F0009D690123A34063F30F0207E00C7800EB23
:1014000084035D6D0123A34063F31F422B68C3F384
:10141000072424F07F0414F0FF0F0DD18C6864F3CF
:101420000A03CC7864F39343C98861F3995343F07A
:10143000805343F400432B600369D9690A43DA619E
:10144000002030BC704700BF30B4002214464B78F7
:10145000012B08D1097800EB81039D6901238B40A2
:1014600063F30F0407E00B7800EB83014D6D01215E
:10147000994061F31F446FF3CF322A600269D36948
:1014800023EA0403D361002030BC704770B54B7869
:10149000012B54D10B7800EB83039B691C681D69F9
:1014A0004B692BB96FF31205012363F3DC450DE0A3
:1014B00063F312058A681344013BB3FBF2F363F351
:1014C000DC45CB78012B01D163F35E750B7800EB23
:1014D00083039B691D61C378012B06D10B7800EB58
:1014E00083039B690A695A610BE0CB78012B08D012
:1014F0004B6933B10A78012393400269556B2B4342
:101500005363CB78012B09D103699B6813F4807F67
:1015100002D144F0005401E044F0805444F004440B
:101520000B7800EB83039B691C60CB78012B41D1C6
:101530000B46C9681A789B8AFFF714FD3AE00B78CE
:1015400000EB83035B6D1C681D694B6933B98B68C5
:1015500063F31205012363F3DC450CE08E689A19EE
:10156000013AB2FBF6F2C2F3090363F3DC4503FB75
:1015700006F363F312050B7800EB83035B6D1D61CB
:10158000C378012B05D10B7800EB83035B6D0A69EF
:101590005A61CB78012B06D14B7913B144F000543A
:1015A00001E044F0805444F004440B7800EB8300E5
:1015B000436D1C60002070BD30B482B04B78012BAD
:1015C00047D182691368146900944C696CB99DF81D
:1015D00000406FF306048DF800409DF8024001259D
:1015E00065F3C4048DF8024017E08D68AC4207D95A
:1015F0004D619DF8004065F306048DF8004005E05C
:101600009DF8005064F306058DF800509DF80240E7
:10161000012565F3C4048DF80240009C1461C47870
:10162000012C05D10C7800EB8404A4690D69656177
:1016300043F004431360C378002B47D14B69002B60
:1016400044D00A780123934001694A6B13434B63EA
:101650003CE00B7800EB83035A6D1368126900922B
:101660004A6972B98C689DF8002064F306028DF80F
:1016700000209DF80220012464F3C4028DF80220AA
:101680000EE08C684C619DF8002064F306028DF832
:1016900000209DF80220012464F3C4028DF802208A
:1016A0000A7800EB8202526D009C1461C278012A14
:1016B00005D10A7800EB8202526D0C69546143F047
:1016C00004430A7800EB8200426D1360002002B0F0
:1016D00030BC70474B78012B11D10B7800EB8300A5
:1016E00081690B68C3F3076222F07F0212F0FF0FDB
:1016F00001D043F0804343F400130B6007E00B7804
:1017000000EB8300426D116841F400131360002068
:10171000704700BF4B78012B04D10B7800EB83009E
:10172000806903E00B7800EB8300406D02686FF383
:101730005552CB78023BDBB2012B01D842F08052EC
:1017400002600020704700BF02699369D0691840A9
:10175000000C704700EB81014B6D9B68026950697A
:101760001840704702699369D069184080B2704789
:1017700082B000230093C0238DF803304FF00003A4
:10178000012262F3C4038DF8023018238DF8003073
:10179000436D009A1A61C378012B08D1436D00F2A2
:1017A000CC525A61436D1A684FF080221A6002B021
:1017B000704700BF837A6BB103699B6813F0010F18
:1017C00008D0D0F80C316FF341036FF30003D0F869
:1017D0000C211360704700BF70B50446FFF7EAFBA9
:1017E000012384F81231002284F8142115E09300BB
:1017F0001344DB002344012083F81D0183F81C21DE
:10180000A3F82221002083F81F014025C3F82451AA
:10181000C3F82801C3F83001013265789542E6D853
:10182000002214E093001344DB002344002183F8DA
:10183000751383F87423A3F87A2383F8771340266B
:10184000C3F87C63C3F88013C3F888130132AA423B
:10185000E8D32046FFF762FC2046FFF70FFC204646
:101860000021FFF7ABFC2046FFF7F4FC2046FFF712
:101870004DFC70BD38B5CDB215F0800F08D001F029
:101880007F0404EB8404E400044404F58E7407E050
:1018900001F07F0404EB8404E400044404F55D7467
:1018A00001F07F012170ED096570A260E37005B160
:1018B000E180022B01D1002323712146FFF790FD27
:1018C000002038BD08B5CAB212F0800F08D001F070
:1018D0007F0303EB8303DB00034403F58E7307E010
:1018E00001F07F0303EB8303DB00034403F55D7327
:1018F00001F07F011970D2095A701946FFF7A4FD53
:10190000002008BD70B501F07F05AC006119C90069
:10191000014401F55D712C44E4000444C4F88023C3
:10192000C4F888330023C4F88C3384F8753384F802
:101930007453C378012B05D105EB8503DB00034409
:10194000C3F8842305EB8505ED00054495F8743351
:1019500013B9FFF731FE01E0FFF798FD002070BDDD
:10196000F8B501F07F06B400A519ED00054405F5B2
:101970008E712C46012784F81D7184F81C61C4F80F
:10198000282104F59475C4F82C210022C4F83421D0
:10199000AB6016B9FFF710FE01E0FFF777FD0020FE
:1019A000F8BD00BF10B5CAB212F0800F08D001F028
:1019B0007F0303EB8303DB00034403F58E7305E031
:1019C00001EB8103DB00034403F55D7301249C708C
:1019D00001F07F011970D2095A701946FFF77AFE9B
:1019E000002010BD10B5CAB212F0800F08D001F06F
:1019F0007F0303EB8303DB00034403F58E7305E0F1
:101A000001EB8103DB00034403F55D7300249C704C
:101A100001F07F011970D2095A701946FFF77AFE5A
:101A2000204610BD002361F30A13026911680B43BD
:101A30001360704710B50446837A43B1D0F80C3177
:101A40006FF341036FF30003D0F80C211360226998
:101A5000536823F001035360054B1B689B692046C4
:101A600098474FF00043E2685361012010BD00BF6A
:101A70009400002030B583B0054600248DF807405F
:101A800090F812318DF80730154B1B685B69984749
:101A90002B699A684FF40064EB685C61AB7AE3B140
:101AA00012F0010F19D095F81531012B15D19DF8C1
:101AB0000730DBB2032B10D1D5F80C21136843F0AB
:101AC00001031360D5F80C21136843F0030313607E
:101AD000044A136943F006031361012003B030BDCB
:101AE0009400002000ED00E010B50446044B1B6894
:101AF000DB6898470823E2685361012010BD00BFEE
:101B00009400002010B50446044B1B68DB6998471D
:101B10004FF48013E2685361012010BD940000204F
:101B200010B50446044B1B681B6A98474FF400131A
:101B3000E2685361012010BD9400002003691A6916
:101B40005B6BCB40DB01DBB2134300EB81018A69A5
:101B500090681840704700BF2DE9F0410746FFF735
:101B6000F3FD044600254BE014F0010F46D05FFA68
:101B700085F838464146FFF7EDFD064610F0010FA7
:101B800027D0012607EB85035B6D9E60FB78B3428F
:101B90000ED107EB85035B6D1969AB002B44DB00AD
:101BA0003B44D3F87C23C1F31201521AC3F88C23AF
:101BB000164B1B681B68384641469847FB78012B3B
:101BC00007D135B997F81131052B02D13846FFF707
:101BD000CFFD16F0020F04D0022607EB85035B6DE4
:101BE0009E6016F0080F09D0084B1B689B683846AA
:101BF0009847082607EB85035B6D9E6001356408F6
:101C0000002CB1D10120BDE8F08100BF940000207C
:101C10002DE9F84306460D468B000B44DB000344D8
:101C2000D3F83021D3F83411521AD3F82431934227
:101C300000D3134603F103084FEA980806EB850327
:101C40009B699B6938E09B1A05EB8502D200324400
:101C5000D2F824719F4200D31F4607F103084FEAD0
:101C60009808AC002C44E40034443046D4F82811E1
:101C7000EAB2BBB2FFF776F9D4F828313B44C4F896
:101C80002831D4F834311F44C4F8347106EB85038D
:101C90009B699B69D4F8302197420DD305EB8505EC
:101CA000ED00354495F81C210123934031694A6BBE
:101CB00022EA03034B630EE09BB243450BD9AB0012
:101CC0002B44DB003344D3F83421D3F830319A422B
:101CD00001D2002BB7D10120BDE8F8832DE9F041F6
:101CE0000746FFF73FFD0446002658E014F0010FB9
:101CF00053D05FFA86F838464146FFF71FFF054686
:101D000010F0010F1DD0012303FA06F039694A6B68
:101D100022EA00024A631D4607EB8602926993603D
:101D2000214B1B685B68384641469847FB78AB42BD
:101D300007D136B997F81131042B02D13846FFF795
:101D400017FD15F0080F04D0082507EB86039B69E3
:101D50009D6015F0100F04D0102507EB86039B69DA
:101D60009D6015F0400F04D0402507EB86039B696A
:101D70009D6015F0020F04D0022507EB86039B69D6
:101D80009D6015F0800F08D038463146FFF740FFC0
:101D9000802507EB86039B699D6001366408002C53
:101DA000A4D10120BDE8F081940000202DE9F84382
:101DB0000446C268936923F010039361C3681D6AE7
:101DC00005F00F06C5F34343022B02D0062B1CD0AF
:101DD0002BE047F6F0732B4227D0C5F30A15B70066
:101DE00007EB06084FEAC8088044D8F880132A4653
:101DF000FFF7CEF8D8F880332B44C8F88033D8F8F2
:101E00008C331D44C8F88C530FE004F2CC510822E7
:101E1000FFF7BEF8C5F30A15B2009319DB0023449F
:101E2000D3F88C231544C3F88C53E268936943F0CC
:101E3000100393610120BDE8F88300BF2DE9F8434A
:101E400004460025A8462F462E460269536823F013
:101E5000010353602946FFF769F92B4609E004EBBB
:101E600083029169FF228A6004EB8301496D8A60D5
:101E7000013362789A42F2D823694FF0FF329A61B7
:101E80004FF0010969F30F0569F31F452369DD610F
:101E900048F00B082369C3F8148047F00B07236947
:101EA0001F61226913686FF30A1313602046FFF75E
:101EB0005FFC46F48056E3685E61044B1B681B6957
:101EC000204698474846BDE8F88300BF94000020AC
:101ED00038B50446FFF76EFAE368DD682046FFF781
:101EE00059FA032808D10023A3704FF40073A3808C
:101EF000092363F38D2506E00123A3704023A3800B
:101F0000052363F38D25E368DD604FF40053E26839
:101F10005361012038BD00BF2DE9F0410546FFF7B0
:101F200069F9002862D02846FFF76CF906460028B8
:101F30005ED0C0F3074717F0080F04D02846FFF71C
:101F40000BFE044600E0002417F0040F03D02846DF
:101F5000FFF7C4FE04435FFA86F818F0020F02D0C0
:101F60000223EA685361C6F3076323F07F0313F08B
:101F7000FF0F03D02846FFF75DFD0443C6F3072695
:101F800016F0080F03D02846FFF774FD044318F03D
:101F9000080F03D02846FFF7A7FD044318F0100FE1
:101FA00003D02846FFF702FF044316F0100F03D0BA
:101FB0002846FFF743FF044316F0200F07D02846BA
:101FC000FFF786FF04430020022101F0BFFA17F05B
:101FD000100F03D02846FFF795FD044317F0200F9C
:101FE00005D02846FFF79CFD044300E0002420466E
:101FF000BDE8F08108B5074B1868FF2808D0064BEC
:102000009B680649064A12689847FF22014B1A60EE
:10201000002008BD4C000020CC000020040200205D
:102020004C01002043230B800048704750000020E3
:1020300038B51F4B1B78012B38D01E4B1B68B3F5EE
:10204000006F02D100221B4B1A601A4B19681A4B01
:102050001B68994203D10022154B1A7038BD994272
:1020600004D9C1F50063154A136002E05B1A134AF4
:102070001360124B1C68402C08D98DB240310D4BB7
:10208000196000220D4B1A60402307E08DB2A3B205
:102090002144084A11600021084A116001240449C2
:1020A0000C708121064A2A44FFF75AFC38BD00BF54
:1020B0004801002054010020500100205C01002054
:1020C0000C02002008B5064A1368591C1160052B44
:1020D00004D10022024B1A60FFF7AAFF002008BDBE
:1020E0005801002038B5134B1B78012B20D1124B1F
:1020F000196819B900220F4B1A7019E0402909D943
:102100000E4C23689AB24033236040390A4B196061
:10211000402308E0094D2C68A2B28BB2214429600B
:10212000002405490C608121054C2244FFF718FC6E
:10213000002038BD480100205C010020540100202F
:102140000C02002038B5054601EB8101C9000144AD
:10215000074B1B69074C2046B1F88C13984728465B
:10216000012122464023FFF7CDFB002038BD00BFF0
:10217000CC000020C401002070B506460C460B7848
:1021800013F0600529D0202D23D1CA88CAB113F0DD
:10219000800F0CD0244B9B68244D487829469847E3
:1021A00030462946E28800F0C9F9002539E049782F
:1021B0001F4B19601F4B1A601C4900F0DBF900250A
:1021C0002FE0194B9B68487800210A469847002564
:1021D00027E000F075FA022523E04B780A2B13D094
:1021E0000B2B16D0062B1CD14B881B0A212B05D19B
:1021F000CA883A2A28BF3A220F4901E00F493A22F9
:10220000304600F09BF90CE00D49012200F096F9F0
:1022100007E08B781BB90A4A13601D4601E000F005
:102220004FFA284670BD00BFCC00002004020020F9
:102230004C0000204C0100206200002059000020CA
:102240004401002010B504468121FFF73BFB2046E6
:102250000121FFF737FB20468221FFF733FB024BBA
:102260005B689847002010BDCC00002038B50446BC
:10227000812140220223FFF7FDFA2046012140225E
:102280000223FFF7F7FA2046822108220323FFF7F3
:10229000F1FA084B02221A7100255D71064B1B688A
:1022A000984720460121054A4023FFF72BFB28468B
:1022B00038BD00BF08010020CC000020C401002070
:1022C0000369024A12685A60002070470C0A002015
:1022D00010B50446D0F8E8351B699847032384F805
:1022E0001231002010BD00BF08B590F8123180F8FF
:1022F0001331042380F81231D0F8E835DB689847B1
:10230000002008BD08B5D0F8E435DB6903B1984773
:10231000002008BD08B5D0F8E4351B6A98470020B6
:1023200008BD00BF08B5D0F8E4355B6A98470020C7
:1023300008BD00BF10B50446002140220B46FFF740
:1023400099FA2046802140220023FFF793FA0123C7
:1023500084F81231D4F8E8355B68A07898470020FB
:1023600010BD00BF10B582B00446694600F086F982
:102370009DF8001001F01F03012B08D013B1022BB0
:102380000AD00EE02046694600F0F4FA0EE020463E
:10239000694600F013FB09E02046694600F02AFB7D
:1023A00004E0204601F08001FFF7FCFA002002B0B3
:1023B00010BD00BF10B50446002948D190F8113176
:1023C000022B39D1D0F83821D0F824319A4211D9D2
:1023D000D21AC0F83821C178012904D1D0F82811C7
:1023E0000B44C0F828312046D4F8281192B200F0EE
:1023F000B7F821E0D0F83C11B1FBF3F203FB121265
:102400006AB98B420BD8D0F84031994207D20021EB
:102410000A4600F0A5F80023C4F840310CE0D4F8D7
:10242000E435DB682BB194F81221032A01D1204650
:102430009847204600F0CAF894F81631012B11D1C4
:102440002046FFF73DFF002384F816310AE00A46D4
:10245000D0F8E4355B692BB190F81211032901D152
:1024600011469847002010BD10B5044659BB90F89E
:102470001131032B32D1D0F89033D0F87C23934222
:1024800014D99B1AC0F89033C178012904D1D0F82F
:1024900080131144C0F880139A4228BF1A46204680
:1024A000D4F8801392B200F077F817E0D0F8E43552
:1024B0001B6923B190F81221032A00D198472046C6
:1024C00000F074F80AE00A46D0F8E4359B692BB1B5
:1024D00090F81211032901D111469847002010BD30
:1024E000F8B504460D4616461F4601F0C3FCC4F875
:1024F000E475069BC4F8E835C4F8EC652046294627
:10250000FFF76AF9D4F8E8351B689847204601F0D0
:10251000B9FCF8BD10B50446D0F8E4351B689847FF
:10252000D4F8E8359B689847002010BD08B5D0F86E
:10253000E4355B689847002008BD00BF38B5044605
:102540000D461346C4F83C21C4F83821022280F815
:10255000112100212A46FFF703FA002038BD00BFF1
:1025600010B50C46134600212246FFF7F9F900206A
:1025700010BD00BF38B504460D461346C4F8942379
:10258000C4F89023032280F8112100212A46FFF786
:10259000B9F9002038BD00BF10B50C461346002124
:1025A0002246FFF7AFF9002010BD00BF10B504466A
:1025B000042380F8113100210A460B46FFF7D0F9B9
:1025C0002046FFF7D5F8002010BD00BF10B5044627
:1025D000052380F8113100210A460B46FFF792F9D6
:1025E0002046FFF7C5F8002010BD00BF03460020BD
:1025F00002E00130C0B201331A78002AF9D17047E5
:1026000010B504464B88012B09D1C0F81831D0F819
:10261000E4359B6898472046FFF7C8FF10BD022BA2
:1026200029D18B8813F0FF0F25D1026952681B0A4C
:10263000013B042B17D8DFE803F003070B0F13004F
:10264000012363F306120EE0022363F306120AE08D
:10265000032363F3061206E0042363F3061202E089
:10266000052363F30612044B1A60012384F8163124
:102670002046FFF79BFF10BD0C0A002090F8CC35D8
:102680000B7090F8CD354B7090F8CE3590F8CF2583
:1026900003EB02234B8090F8D03590F8D12503EB63
:1026A00002238B8090F8D23590F8D32503EB0223D8
:1026B0009BB2CB80C0F84031012380F811317047C4
:1026C00010B504468021FFF76DF920460021FFF781
:1026D00069F92046FFF74CF810BD00BF30B583B054
:1026E00005460C464A88130A013B062B6FD8DFE8E3
:1026F00003F00417246E6E666A00D0F8EC351B6890
:1027000080780DF1060198470146E388402B03D0FD
:1027100095F81231012B5ED10823ADF806305AE04E
:10272000D0F8E4359B6A80780DF1060198470146A0
:1027300002234370C5F8F0054DE0D2B2052A3AD81D
:10274000DFE802F0030C151E2730D0F8EC355B688B
:1027500080780DF10601984701463CE0D0F8EC3551
:102760009B6880780DF106019847014633E0D0F868
:10277000EC35DB6880780DF10601984701462AE0C8
:10278000D0F8EC351B6980780DF1060198470146B9
:1027900021E0D0F8EC355B6980780DF106019847AF
:1027A000014618E0D0F8EC359B6980780DF1060100
:1027B000984701460FE02146FFF782FF18E02146C7
:1027C000FFF77EFF14E02146FFF77AFF10E0214675
:1027D000FFF776FF0CE0BDF806304BB1E2883AB166
:1027E0009A4228BF1A46ADF806202846FFF7A6FEF3
:1027F00003B030BD38B504468B88E3B9CB88D3B974
:102800008D7805F07F0590F81231032B02D1FFF788
:1028100057FF38BD80F814512946FFF703F92046C9
:10282000FFF7C4FE1DB1022384F8123138BD012325
:1028300084F8123138BD2046FFF742FF38BD00BF93
:1028400010B504468B78214A1370012B02D9FFF78B
:1028500037FF10BD90F81221022A02D0032A10D0AF
:1028600030E05BB180F81031032280F81221194664
:10287000FFF750FE2046FFF799FE10BDFFF796FECA
:1028800010BD5BB9022280F8122180F81031194680
:10289000FFF74CFE2046FFF789FE10BD90F810119F
:1028A0008B420CD0FFF742FE084B197884F81011C8
:1028B0002046FFF72FFE2046FFF778FE10BDFFF7FA
:1028C00075FE10BDFFF7FCFE10BD00BF6C010020BF
:1028D00008B50346CA88012A02D0FFF7F1FE08BDF9
:1028E00090F81221022A02D0032A05D00AE00749F3
:1028F0000122FFF723FE08BD03F588710122FFF7CF
:102900001DFE08BDFFF7DCFE08BD00BF680100200A
:1029100008B590F81231023B012B0DD80122084B6B
:102920001A60D0F8183113B10322054B1A6004491C
:102930000222FFF703FE08BDFFF7C2FE08BD00BF7D
:102940006001002010B5044690F81231023B012BC3
:102950000DD84B88012B0CD10023C0F81831D0F8CA
:10296000E4359B6898472046FFF720FE10BDFFF72F
:10297000A7FE10BD08B54B78092B1BD8DFE803F084
:1029800011171A141A08051A0E0BFFF7A7FE13E009
:10299000FFF730FF10E0FFF753FF0DE0FFF798FF60
:1029A0000AE0FFF7B5FF07E0FFF72AFE04E0FFF7B4
:1029B000C9FF01E0FFF784FE002008BD38B50446DA
:1029C0000D4690F81231032B0FD10B79012B09D84A
:1029D000D0F8E4359B689847EB8843B92046FFF769
:1029E000E5FD04E0FFF76CFE01E0FFF769FE002063
:1029F00038BD00BF38B505460C468A88D1B2637829
:102A0000012B27D0002B49D0032B40F0838090F876
:102A10001231022B02D0032B07D017E0002979D006
:102A2000802977D0FEF7BEFF74E0638823B919B11F
:102A3000802901D0FEF7B6FFD5F8E4359B6828461B
:102A4000214698472846FFF7B1FD63E02146FFF78E
:102A500037FE5FE090F81231022B02D0032B07D033
:102A600018E0002956D0802954D0FEF79BFF51E092
:102A70006388002B4ED149B1802907D0FEF7B2FF01
:102A8000D5F8E4359B682846214698472846FFF745
:102A90008DFD3FE02146FFF713FE3BE090F8123139
:102AA000022B02D0032B06D031E099B3802931D01C
:102AB000FEF778FF2EE0D2B212F0800F10D001F0B6
:102AC0007F0101EB8101C900014491F81E311BB166
:102AD0000122114B1A6014E000220F4B1A6010E023
:102AE00012F0800F0DD101EB8101C900014491F872
:102AF00076331BB10122084B1A6002E00022064B1C
:102B00001A60284604490222FFF718FD02E0214618
:102B1000FFF7D6FD002038BD64010020D0B170B5AC
:102B20000D4616460446FFF761FD0130400080B2B5
:102B30003080287003236B70022307E05A1CD2B246
:102B40000134E954531CDBB20021A9542178002937
:102B5000F4D170BD704700BF00B583B04FF400736F
:102B6000ADF8043003238DF8063048238DF8073084
:102B7000034801A9FDF77AFC03B05DF804FB00BF30
:102B8000000C014000B583B04FF40073ADF8043081
:102B900003238DF8063014238DF80730034801A96C
:102BA000FDF764FC03B05DF804FB00BF000C0140BE
:102BB00070B50646072433E046FA04F313F0010F1C
:102BC00005D039484FF40071FDF79EFD04E036480A
:102BD0004FF40071FDF7C8FD00BF00BF00BF00BF8C
:102BE00000BF00BF00BF00BF00BF00BF00BF00BFED
:102BF0002D4D28464FF48071FDF786FD00BF00BFC4
:102C000000BF00BF00BF00BF00BF00BF00BF00BFCC
:102C100000BF00BF28464FF48071FDF7A5FD013CC1
:102C2000002CC9DA204C20464FF40071FDF76CFDF2
:102C3000FFF792FF00BF00BF00BF00BF00BF00BF93
:102C400000BF00BF00BF00BF00BF00BF20464FF461
:102C50008071FDF759FD20464FF40071FDF79CFC93
:102C6000054600BF00BF00BF00BF00BF00BF00BFE0
:102C700000BF00BF00BF00BF00BF20464FF48071FF
:102C8000FDF772FDFFF77EFF00BF00BF00BF00BF72
:102C900000BF00BF00BF00BF00BF00BF00BF00BF3C
:102CA000B5FA85F0400970BD000C0140F8B5074643
:102CB00038484FF40071FDF727FDFFF74DFF002462
:102CC00007252DE000BF00BF00BF00BF00BF00BF51
:102CD00000BF00BF00BF00BF00BF00BF2D4E304689
:102CE0004FF48071FDF710FD30464FF40071FDF791
:102CF00053FC6400E4B208B144F0010400BF00BF1B
:102D000000BF00BF00BF00BF00BF00BF00BF00BFCB
:102D100000BF00BF1F484FF48071FDF725FD013D46
:102D2000002DCFDAFFF72EFF2FB11A484FF40071B4
:102D3000FDF7EAFC04E017484FF40071FDF714FDBD
:102D400000BF00BF00BF00BF00BF00BF00BF00BF8B
:102D500000BF00BF00BF00BF0E4D28464FF480717A
:102D6000FDF7D2FC00BF00BF00BF00BF00BF00BF27
:102D700000BF00BF00BF00BF00BF00BF28464FF428
:102D80008071FDF7F1FC28464FF40071FDF7BCFCA3
:102D90002046F8BD000C01402DE9F04182B04FF40F
:102DA0000076ADF804604FF003088DF80680142714
:102DB0008DF807700D4C204601A9FDF757FB4FF425
:102DC0008075ADF804508DF806808DF807702046A8
:102DD00001A9FDF74BFB20463146FDF795FC204647
:102DE0002946FDF791FC02B0BDE8F081000C0140DE
:102DF0002DE9F04180460F4615461E462A4C2046D6
:102E00004FF40071FDF7B0FC00BF00BF00BF00BF72
:102E100000BF00BF20464FF48071FDF7A5FC40467F
:102E2000FFF7C6FE5FFA80F83846FFF7C1FE05E0FF
:102E3000771C3078FFF7BCFE25463E466B1EDCB2A1
:102E4000002DF5D1184C20464FF40071FDF78CFC95
:102E500000BF00BF00BF00BF00BF00BF00BF00BF7A
:102E600000BF00BF00BF00BF20464FF48071FDF7D8
:102E70004BFC00BF00BF00BF00BF00BF00BF20462B
:102E80004FF40071FDF740FC00BF00BF00BF00BF62
:102E900000BF00BF00BF00BF00BF00BF00BF00BF3A
:102EA0004046BDE8F08100BF000C01402DE9F84329
:102EB000074689461D4614463D4E30464FF4007184
:102EC000FDF752FC00BF00BF00BF00BF00BF00BF46
:102ED00030464FF48071FDF747FC3846FFF768FE37
:102EE0005FFA80F84846FFF763FE00BF00BF00BFEF
:102EF00000BF00BF00BF00BF00BF00BF00BF00BFDA
:102F000000BF30464FF48071FDF7FEFB30464FF4B2
:102F10000071FDF729FC00BF00BF00BF00BF00BF6C
:102F200000BF30464FF48071FDF71EFC47F00100F2
:102F3000FFF73EFE08E06F1CB6FA86F04009FFF787
:102F4000B5FE287034463D46661E002CF3D1184C61
:102F500020464FF40071FDF707FC00BF00BF00BF23
:102F600000BF00BF00BF00BF00BF00BF00BF00BF69
:102F700000BF20464FF48071FDF7C6FB00BF00BFC5
:102F800000BF00BF00BF00BF20464FF40071FDF737
:102F9000BBFB00BF00BF00BF00BF00BF00BF00BF42
:102FA00000BF00BF00BF00BF00BF4046BDE8F883C0
:102FB000000C0140074B1B689A783823B3FBF0F0F4
:102FC000824205D9044B1B6804225A7001207047C5
:102FD00000207047C8000020C40000202DE9F04305
:102FE00087B004200121FDF70DFD08200121FDF728
:102FF00009FD20200121FDF705FD4FF4805001213E
:10300000FDF700FD01200146FDF7FCFC31480121E0
:10301000FDF7DAFBA023ADF8143018278DF81770F0
:1030200003248DF816402C4D284605A9FDF71EFAFD
:103030004023ADF8143004268DF817608DF8164043
:10304000284605A9FDF712FA4FF40049ADF814908F
:103050008DF816404FF010088DF81780284605A906
:10306000FDF704FA28464946FDF74EFBADF814601B
:103070008DF816408DF81780184C204605A9FDF7ED
:10308000F5F920463146FDF73FFB0023ADF800304F
:103090004FF48272ADF80220ADF80430ADF806307E
:1030A000ADF808304FF40072ADF80A20ADF80C709E
:1030B000ADF80E300723ADF8103004F5E05420468B
:1030C0006946FDF7C5FC20460121FDF757FD07B015
:1030D000BDE8F08300023000000801400014014008
:1030E000F0B583B004200121FDF78CFC08200121FC
:1030F000FDF788FC10200121FDF784FC2020012130
:10310000FDF780FC1024ADF8044003258DF806502F
:103110008DF80740344E304601A9FDF7A7F9304637
:103120002146FDF721FBADF804408DF806508DF8DF
:10313000074006F58066304601A9FDF797F930464D
:103140002146FDF711FB2027ADF804708DF80650DD
:103150008DF80740304601A9FDF788F93046394619
:10316000FDF702FB0223ADF804308DF806508DF810
:1031700007401E4F384601A9FDF778F94FF4006368
:10318000ADF804308DF806508DF80740304601A99F
:10319000FDF76CF94FF48063ADF804308DF80650FC
:1031A0008DF80740304601A9FDF760F90123ADF81D
:1031B00004308DF806508DF80740384601A9FDF718
:1031C00055F94FF40056ADF804608DF806508DF8AF
:1031D0000740384601A9FDF749F938463146FDF761
:1031E00093FA03B0F0BD00BF000801400010014099
:1031F000F0B583B0914B5B7813F0020F01D010272C
:1032000000E0042713F0040F01D0102600E004268C
:103210004FF48053ADF804308DF8077003248DF817
:103220000640874D284601A9FDF720F94FF40053C9
:10323000ADF804308DF807708DF80640284601A9D6
:10324000FDF714F94FF40043ADF804308DF8077022
:103250008DF80640284601A9FDF708F94FF4804390
:10326000ADF804308DF807708DF80640284601A9A6
:10327000FDF7FCF82023ADF804308DF807608DF8D9
:103280000640704F384601A9FDF7F0F81023ADF85D
:1032900004308DF807608DF80640384601A9FDF727
:1032A000E5F80123ADF804308DF807608DF806408D
:1032B000284601A9FDF7DAF80223ADF804308DF8AD
:1032C00007608DF80640284601A9FDF7CFF85B4B53
:1032D0005B7813F0020F45D028464FF40061FDF7EC
:1032E00013FA564B1B7813F0010F05D028464FF404
:1032F0008051FDF709FA04E051484FF48051FDF781
:1033000033FA4E4B1B7813F0020F05D04C484FF4A4
:103310000051FDF7F9F904E049484FF40051FDF779
:1033200023FA464B1B7813F0040F05D044484FF4A2
:103330000041FDF7E9F904E041484FF40041FDF791
:1033400013FA3E4B1B7813F0080F05D03C484FF49E
:103350008041FDF7D9F90AE039484FF48041FDF783
:1033600003FA04E036484FF40061FDF7FDF9334BF2
:103370005B7813F0040F3DD031484FF48061FDF7C6
:10338000C3F92E4B1B7813F0100F04D02D482021C9
:10339000FDF7BAF903E02B482021FDF7E5F9274BAB
:1033A0001B7813F0200F04D026481021FDF7ACF94C
:1033B00003E024481021FDF7D7F9204B1B7813F0C8
:1033C000400F04D01E480121FDF79EF903E01C4880
:1033D0000121FDF7C9F9194B93F90030002B04DAEC
:1033E00017480221FDF790F909E015480221FDF781
:1033F000BBF904E012484FF48061FDF7B5F90F4BBB
:103400005B7813F0010F04D00E480221FDF77CF920
:1034100003E00C480221FDF7A7F9084B5B7813F095
:10342000080F04D007480121FDF76EF903E00548B5
:103430000121FDF799F903B0F0BD00BF7C01002028
:10344000000C01400010014010B504460A4802215A
:10345000FDF7F4FB0028F9D007482146FDF7BAFB39
:1034600005480121FDF7EAFB0028F9D00248FDF7E5
:10347000CBFBC0B210BD00BF0030014003E000BF75
:1034800000BF00BF1846431E0028F8D1704700BF98
:10349000F8B500244EE0012C07D0022C02D0274EB4
:1034A000102504E0264E202501E0254E102530464B
:1034B0002946FDF7CDF82746224B53F82430BBB3FD
:1034C000214A52F824201AB1013A1F4941F8242018
:1034D0001D4A52F827205ABB032B0CD0042B19D0BD
:1034E000022B25D130462946FDF73EF90022154B27
:1034F00043F827201CE020B130462946FDF734F977
:1035000003E030462946FDF7FFF8C8220E4B43F88A
:1035100027200DE020B130462946FDF725F903E0CC
:1035200030462946FDF7F0F86422074B43F8272080
:103530000134E4B2022CAED9F8BD00BF000801404E
:10354000000C0140700100205C0B002010B5044607
:10355000124B43F82010012807D0022802D010484F
:10356000102304E00F48202301E00E481023012916
:1035700007D011B1022908D010BD1946FDF7F4F8A3
:1035800010BD1946FDF7C0F810BD1946FDF7BCF88F
:10359000B422054B43F8242010BD00BF7001002069
:1035A00000080140000C01405C0B0020F0B583B026
:1035B0000020FDF7F1F9FFF711FDFFF791FDFFF78F
:1035C000EBFB9D4B00939D4801219D4A9D4BFEF7CF
:1035D00087FF02200321FFF7B9FFFFF709FE9A4C8E
:1035E00020464FF40051FDF7BFF800BF00BF00BFF9
:1035F00000BF20464FF40051FDF786F8934B1B683F
:10360000934AA2FB03239B09013B924A5360F0219A
:10361000914B83F8231000239360072313608F4B93
:103620001B683F2BFBD900200121FFF78FFF0024EF
:103630008A4B1C608A482146402200F02BFD894BB2
:103640001C70894A1168894B1868007808701168E5
:103650001868807888701268032151701A6813788E
:10366000522B00F2AB83DFE813F05300A903A90348
:10367000A903A903A903A903A903A903A903A903EA
:10368000A903A903A903A903A903A903A903A903DA
:103690005D018E01A903A903A903A903A903A90335
:1036A000A903A903A903A903A9035E00A903A90308
:1036B000A903A9038A000701A903A903A903A90370
:1036C000A903B802A903A903A903A9037C02A903BA
:1036D000A903A903A903A903A903A903A903A9038A
:1036E000A903A903A903A903A903A903A903A9037A
:1036F000A903A903A903A903A903A903A903A9036A
:10370000A903A903A903A903A903A903C701D30115
:10371000554B1B6801221A725A729A720021D97293
:103720001A735A704EE3137A012B09D013B1022B8E
:103730000CD01BE044484FF40051FCF7E5FF19E0C2
:1037400041484FF40051FDF70FF813E03E4C20467E
:103750004FF40051FDF708F800BF00BF00BF00BFE5
:1037600020464FF40051FCF7CFFF03E03D4A1378A9
:10377000013313703C4B1B6801225A7022E3042072
:10378000FFF718FC002840F01D8300F1804000F591
:1037900084304FF40041FCF7E7FF0022344B1A70ED
:1037A00038E0042909D152B191005818007A40B983
:1037B0001944497A39B1002106E0002104E00021D2
:1037C00002E0002100E0012129B903EB8200017A27
:1037D00061F07F01017203EB8203187AFFF734FE78
:1037E000224D2B68224C227803EB8203587AFFF794
:1037F0002BFE2B68227803EB8203987AFFF724FED6
:103800002B68227803EB8203D87AFFF71DFE23781A
:1038100001332370154B1B689978154A1278914231
:10382000BFD814484FF40041FCF76EFF0E4B1B68E5
:1038300001225A70C6E200BF1C0100202C0C00209F
:10384000E800002020000020001001401C000020A3
:10385000D34D621010E000E000ED00E0681200209F
:10386000EC0B002020120020C4000020C800002023
:10387000140B0020000801400420FFF79BFB0028E8
:1038800040F0A08200F1804000F584304FF4004108
:10389000FCF76AFF0022A34B1A7032E05B001A4467
:1038A000117A01F07F0111729F4C22681344187A3B
:1038B000FFF7CAFD23689B4D2A7803EB4203587A31
:1038C000FFF7C2FD994E37682A78930021685200AD
:1038D0008818047AF81804720A44517A41729C1CC0
:1038E0000020FFF7B1FD3B19187236682B789B005A
:1038F000DC1C0020FFF7A8FD344420722B78013334
:103900002B70894B1A689178864B1B789942C5D8E1
:1039100087484FF40041FCF7F7FE844B1B680122F7
:103920005A704FE20220FFF745FB002840F04A8220
:1039300000227C4B1A7012E05200A11802F1090318
:10394000C020097A01222344FFF752FA18B9794AB4
:10395000137801331370734A137801331370724B69
:103960001C68A3786F4A12789342E5D8714B1B7894
:1039700023B16E4B1B6805225A7023E26B4B1B6808
:1039800001225A701EE20220FFF714FB002840F0CB
:1039900019820022634B1A701AE0644B1C685000B5
:1039A0001144097A231819725F4B1B681A4400F1FD
:1039B0000903C020117A01222344FFF777FA18B9CE
:1039C0005C4A137801331370564A1378013313702D
:1039D000554B19688B78534A12789342DDD8554B72
:1039E0001B7823B1514B1B6805225A70EAE14F4BFB
:1039F0001B6801225A70E5E1117A4F4B1970527A17
:103A00005A70FFF7F5FB494B1B6801225A70D9E148
:103A1000494B5B7813F0020F43D148484FF4805173
:103A2000FCF7BAFD28B1444A137843F00103137040
:103A300004E0414A137823F0010313703F484FF428
:103A40000051FCF7A9FD28B13B4A137843F002036B
:103A5000137004E0384A137823F0020313703748D8
:103A60004FF40041FCF798FD28B1334A137843F036
:103A70000403137004E0304A137823F00403137036
:103A80002E484FF48041FCF787FD28B12A4A13786D
:103A900043F00803137004E0274A137823F0080367
:103AA0001370254B5B7813F0040F50D1244820216C
:103AB000FCF772FD28B1204A137843F0100313700D
:103AC00004E01D4A137823F0100313701C481021E2
:103AD000FCF762FD28B1184A137843F020031370F5
:103AE00004E0154A137823F02003137013480121D2
:103AF000FCF752FD28B1104A137843F040031370CD
:103B000004E00D4A137823F0400313700B480221A0
:103B1000FCF742FDB0B1084A137863F07F031370DD
:103B200015E000BF140B0020C8000020C4000020D6
:103B300000080140201200207C010020000C014000
:103B400000100140A74A137803F07F031370A64BBF
:103B50001B68A44A1178197252785A7201225A705D
:103B600030E10320FFF726FA002840F02B810022E5
:103B70009E4B1A7025E09E4D28460421FCF7F4FD6B
:103B80009C4E3268994C237803EB43031344187A14
:103B9000FFF75AFC3268237803EB43031344587A47
:103BA000FFF752FC3268237803EB43031344987AFF
:103BB000FFF74AFC28460421FCF7A6FD23780133D1
:103BC00023708C4B1B689A78884B1B789A42D2D80A
:103BD000854B1B6801225A70F4E0537A864A1370B1
:103BE0004BB1864A1278013B9A4204D07E4B1B6847
:103BF00006225A70E6E082484FF40041FCF7B4FD1B
:103C00007D4B1B78BBBB8020FFF71EFC0220FFF71B
:103C10001BFC0020FFF718FC0020FFF715FC80209C
:103C2000FFF712FC0220FFF70FFC0020FFF70CFC4F
:103C3000704B1B681B7A022B07D0032B09D0012B7A
:103C400019D10120FFF700FC15E00220FFF7FCFB73
:103C500011E00320FFF7F8FB0020FFF7F5FB03203E
:103C6000FFF7F2FB0020FFF7EFFB0020FFF7ECFB74
:103C7000644B187090E00022634B1A7017E000202C
:103C8000FFF7E2FB0320FFF7DFFB0020FFF7DCFB81
:103C90000020FFF7D9FB5B4B187010F0010F0AD121
:103CA000594A1378013313701E20FFF7E7FB564B78
:103CB0001B781D2BE3D900224C4B1A7018E0802092
:103CC000FFF7C2FB0420FFF7BFFB0020FFF7BCFBA0
:103CD000484B1A68454C23781344987AFFF7B4FB95
:103CE0000023484A1370484A137023780133237025
:103CF0003E4B1B781F2BE2D90022434B1A7017E072
:103D00000020FFF7A1FB0320FFF79EFB0020FFF739
:103D10009BFB0020FFF798FB3A4B187010F0010F47
:103D20000AD1394A1378013313701E20FFF7A6FB1E
:103D3000354B1B78FF2BE3D12F4B1B78FF2B27D163
:103D40000022314B1A7017E00020FFF77DFB0320A3
:103D5000FFF77AFB0020FFF777FB0020FFF774FBEB
:103D6000284B187010F0400F0AD1274A13780133FE
:103D700013701E20FFF782FB234B1B781D2BE3D90A
:103D8000214B1B781E2B03D1204A1378013313706B
:103D9000194B1A78194B1A701C4B1B7823B1124B14
:103DA0001B6805225A7003E00F4B1B6801225A70F2
:103DB00013484FF40041FCF7A7FC03E00A4B1B68D3
:103DC00002225A7000200221FFF7C0FB104C20464F
:103DD000202100F08DF804F12000202100F088F867
:103DE0001DE400BF7C010020C4000020140B002053
:103DF00000140140C8000020EA0B00207E010020D2
:103E00000008014064120020580B002020120020FE
:103E1000EC0B0020704700BFFEE700BFFEE700BFCD
:103E2000FEE700BFFEE700BF704700BF704700BF5E
:103E3000704700BF08B5094B9B7A4BB1084A13681D
:103E400023F006031360FCF7B9FF0448FDF7B2FC4A
:103E50004FF48020FCF7F8FA08BD00BF2C0C0020BE
:103E600010ED00E008B50248FEF756F808BD00BFA7
:103E70002C0C002008B54FF480500121FCF79CFD6C
:103E800008BD00BF00B583B04FF4C060FCF770FA06
:103E900043238DF8043001238DF8053003228DF87B
:103EA00006208DF8073001A8FCF782FA03B05DF810
:103EB00004FB00BFC0EB00108000064BA3FB0023F7
:103EC000C21A03EB52029208002301339342FCD939
:103ED000704700BF2549922408B54FF47A7303FB5D
:103EE00000F0FFF7E7FF08BD002070470020704793
:103EF0000D4B1A680D4B1B689A42F9D170B4002320
:103F00000DE00A4D2C68621C2A60C65C084D2E55D7
:103F1000B2F5006F02D10024044A146001338B42D1
:103F2000EFD3002070BC70475401002050010020E6
:103F30000C02002070B400230AE0084A1468651CD3
:103F40001560C65C064D2E551268402A02D001331A
:103F50008B42F2D3002070BC704700BF6812002073
:103F60006C120020202802D021281BD029E010B597
:103F70000C460020154B18600221FFF7E7FA237862
:103F8000627843EA0223A27843EA0243E27843EAF2
:103F900002630F4A13602379137163795371A37914
:103FA000937110E00A4B1A780A705A784A709A781E
:103FB0008A70DA78CA701A790A715A794A719B79CB
:103FC0008B7100207047002010BD00BF68120020D8
:103FD000E000002012230B800048704708010020F9
:103FE00004230B80004870470401002010B50A46E6
:103FF000034C04482146FEF791FD204610BD00BF4A
:10400000100A00209441000810B50A46034C0448E9
:104010002146FEF783FD204610BD00BF100A002098
:10402000A041000810B50A46034C04482146FEF79B
:1040300075FD204610BD00BF100A00209441000805
:1040400010B50A46034C04482146FEF767FD20469A
:1040500010BD00BF100A0020B441000810B50A4688
:10406000034C04482146FEF759FD204610BD00BF11
:10407000100A0020B4410008704700BF704700BF1D
:10408000704700BF704700BF704700BF704700BF58
:10409000704700BF03460244934202D003F8011B5D
:1040A000FAE770472E2E2F73797374656D2F737234
:1040B000632F73746D333266312D7374647065725F
:1040C0006970682F6D6973632E6300002E2E2F7345
:1040D000797374656D2F7372632F73746D333266E9
:1040E000312D7374647065726970682F73746D33E9
:1040F00032663130785F657874692E6300000000A5
:104100002E2E2F73797374656D2F7372632F7374F2
:104110006D333266312D7374647065726970682F07
:1041200073746D3332663130785F6770696F2E63F8
:10413000000000002E2E2F73797374656D2F73723B
:10414000632F73746D333266312D737464706572CE
:104150006970682F73746D3332663130785F7263C3
:10416000632E63002E2E2F73797374656D2F737217
:10417000632F73746D333266312D7374647065729E
:104180006970682F73746D3332663130785F737085
:10419000692E63004C4D53383030315F4556420034
:1041A0004C696D65204D6963726F73797374656DC9
:0841B0007300000056435000AB
:1041B8007856341240010020000000000000000082
:1041C80000000000010203040607080900A24A04CF
:1041D8006D2200084522000879210008000000002F
:1041E800F51F0008E520000845210008C520000843
:1041F800000000000000000025200008FF0000006B
:1042080009024300020100C0320904000001020251
:104218000100052400100105240100010424020204
:104228000524060001070582030800FF09040100B0
:10423800020A00000007050102400000070581028C
:10424800400000009800002069240008B5230008F9
:10425800652300080523000835230008E922000823
:10426800D1220008152300082523000800000000BB
:1042780000000000EC0B00206C120020E93E000852
:10428800ED3E0008653F0008F13E0008353F000894
:1042980000C2010000000800D53F0008E13F000807
:1042A80009400008ED3F000825400008414000088B
:1042B8005D400008040309041201000200000040E8
:1042C80083044057000201020301000079400008FE
:1042D8007D400008814000088540000889400008AA
:0C42E8008D400008914000083254769888
:04000005080001E509
:00000001FF
